:100000000C9490000C94B8000C94B8000C94B800B8
:100010000C94B8000C94B8000C94B8000C94B80080
:100020000C94B8000C94B8000C94B8000C94C51053
:100030000C94B8000C94B8000C94B8000C94B80060
:100040000C947B100C94B8000C9449100C94231061
:100050000C94B8000C94B8000C94B8000C94B80040
:100060000C9481110C94B80023434D442320003D8F
:100070000023434D442320003D0023434D442320CF
:10008000003D0023434D44232000000000002400D5
:1000900027002A0000000000250028002B0004048F
:1000A0000404040404040202020202020303030320
:1000B00003030102040810204080010204081020FC
:1000C00001020408102000000008000201000003E3
:1000D00004070000000000000000555000444F5786
:1000E0004E004C454654004C454654005249474842
:1000F00054005249474854004241434B00454E5436
:10010000455200434C454152004241434B535041FC
:10011000434500545950452D434841520000F512C3
:1001200011241FBECFEFD8E0DEBFCDBF12E0A0E0AC
:10013000B1E0ECE9F3E302C005900D92A23CB107F7
:10014000D9F725E0A2ECB2E001C01D92A338B207B6
:10015000E1F710E0C0E9D0E004C02197FE010E9461
:100160007718CF38D107C9F70E9482150C94CC19A3
:100170000C9400008091AC0490E00196880F991FC8
:100180002091B7043091B804820F931FDC01ED91E8
:10019000FC9181E09481983009F080E00895089501
:1001A0000895AF92BF92CF92DF92EF92FF920F939A
:1001B0001F93CF93DF936C017B018B01040F151FFD
:1001C000EB015E01AE18BF08C017D10759F0699165
:1001D000D601ED91FC910190F081E02DC6010995C9
:1001E000892B79F7C501DF91CF911F910F91FF9076
:1001F000EF90DF90CF90BF90AF900895FC01538DAA
:10020000448D252F30E0842F90E0821B930B5417F0
:1002100010F0CF96089501970895FC01918D828D7D
:10022000981761F0A28DAE0FBF2FB11D5D968C9116
:10023000928D9F5F9F73928F90E008958FEF9FEF55
:100240000895FC01918D828D981731F0828DE80F11
:10025000F11D858D90E008958FEF9FEF0895FC01CB
:10026000918D228D892F90E0805C9F4F821B910998
:100270008F739927089582E993E00E942F0121E06E
:10028000892B09F420E0822F089580E090E0892BEB
:1002900029F00E943B0181110C9400000895FC019B
:1002A000A48DA80FB92FB11DA35ABF4F2C91848DD7
:1002B00090E001968F739927848FA689B7892C9334
:1002C000A089B1898C91837080648C93938D848D87
:1002D000981306C00288F389E02D80818F7D80838A
:1002E0000895EF92FF920F931F93CF93DF93EC014A
:1002F00081E0888F9B8D8C8D98131AC0E889F989CD
:10030000808185FF15C09FB7F894EE89FF896083CF
:10031000E889F98980818370806480839FBF81E050
:1003200090E0DF91CF911F910F91FF90EF90089592
:10033000F62E0B8D10E00F5F1F4F0F731127E02E6D
:100340008C8D8E110CC00FB607FCFACFE889F989A5
:10035000808185FFF5CFCE010E944F01F1CFEB8D5B
:10036000EC0FFD2FF11DE35AFF4FF0829FB7F89479
:100370000B8FEA89FB8980818062CFCF0F931F9317
:10038000CF93DF938C01D0E0C0E0F801EC0FFD1FAC
:100390006491662341F082E993E00E947101892B08
:1003A00011F02196F2CFCE01DF91CF911F910F91E5
:1003B0000895CF93DF93EC01888D8823B9F0AA8943
:1003C000BB89E889F9898C9185FD03C0808186FD10
:1003D0000DC00FB607FCF7CF8C9185FFF2CF80815F
:1003E00085FFEDCFCE010E944F01E9CFDF91CF9184
:1003F000089590E0FC01EA53FF4F2491FC01EE5474
:10040000FF4F3491FC01E256FF4FE491EE23C9F017
:10041000222339F0233001F1A8F4213019F12230E0
:1004200029F1F0E0EE0FFF1FEC56FF4FA591B491BC
:100430008FB7F894EC91611126C030953E233C9320
:100440008FBF08952730A9F02830C9F0243049F72C
:10045000809180008F7D03C0809180008F77809392
:100460008000DFCF84B58F7784BDDBCF84B58F7DEF
:10047000FBCF8091B0008F778093B000D2CF809176
:10048000B0008F7DF9CF3E2BDACFCF93DF9390E092
:10049000FC01EE54FF4F249182569F4FFC01849142
:1004A0008823D1F090E0880F991FFC01E657FF4F99
:1004B000A591B491FC01EC56FF4FC591D491611107
:1004C0000EC09FB7F8948C91E22FE0958E238C9309
:1004D0002881E223E8839FBFDF91CF9108958FB7F2
:1004E000F894EC91E22BEC938FBFF6CF3FB7F894E2
:1004F0008091080390910903A0910A03B0910B0326
:1005000026B5A89B05C02F3F19F00196A11DB11D6E
:100510003FBFBA2FA92F982F8827BC01CD01620FAA
:10052000711D811D911D42E0660F771F881F991F65
:100530004A95D1F708958F929F92AF92BF92CF9232
:10054000DF92EF92FF924B015C010E9476026B01F9
:100550007C010E9476026C197D098E099F09683E14
:10056000734081059105A8F321E0821A9108A10842
:10057000B10888EEC80E83E0D81EE11CF11C81147E
:100580009104A104B10429F7FF90EF90DF90CF9080
:10059000BF90AF909F908F9008951F93CF93DF935C
:1005A000EC01162F88818C3008F04EC061E0812F5D
:1005B0000E9445028881282F30E0F901EE0FFF1FCD
:1005C000E20FF31FE15CFB4F1F736081607C612BC6
:1005D000608319821A822CE0622F0E946B18829F1E
:1005E000B001112430E020E0AB01420F531FFA01AB
:1005F000EE0FFF1FE40FF51FE15CFB4F908196FDAE
:1006000016C02F5F3F4F2C30310571F781110FC09D
:100610001092800082E080938100109285001092F9
:100620008400B19A80916F00826080936F00E881AE
:100630008E2F90E0FC01EE0FFF1FE80FF91FE15C29
:10064000FB4F8081806480838881DF91CF911F91EF
:10065000089508952091E302260F3327331F213296
:100660003105ECF420916803FC0190E080E0243037
:1006700069F082E00895A091E3022191AC014D530D
:100680005D4FA40FB52FB11D2C930196861798F3DB
:100690008091E302680F6093E30280E0089581E0B7
:1006A00008951092680381E08093670310924203DB
:1006B00061E082E10E94F90161E083E10E94F901B9
:1006C000E9EBF0E080818E7F808380818D7F808365
:1006D00088E48093B80085E48093BC00089510926C
:1006E00037031092360310926F03109291030E9409
:1006F00051038FEC90E0909335038093340380EDA9
:1007000090E090933303809332030895CF93DF9367
:1007100091E09093C2028823B9F0C091B800D091C3
:10072000BA008091BC008A7B8093BC0060E082E1CB
:100730000E94F90160E083E10E94F9010E945103E7
:10074000D093BA00C093B800DF91CF9108958F92F3
:100750009F92AF92BF92CF92DF92EF92FF920F9350
:100760001F93CF93DF93D0919103D13208F0D7C07C
:10077000182FC09190030E9476026B017C0180913A
:10078000680381116BC082E0809368031093670354
:100790008FEF8093660310926503D0936403A0E704
:1007A000B3E0E4E4F3E080E0D81391C01092430397
:1007B00080914303CC0FC82BC09343038091420325
:1007C000813009F088C0109242030E9476026B01CA
:1007D0007C01809143038093BB0080916A039091D8
:1007E0006B03A0916C03B0916D03892B8A2B8B2B2B
:1007F000A1F00E94760200916A0310916B03209190
:100800006C0330916D036C197D098E099F090617E1
:1008100017072807390708F442C08091BC0083FD00
:10082000D8CF85EC8093BC000E9476026B017C01DE
:1008300080916803823009F450C0809166038F3F35
:1008400009F46FC080916603803209F46CC0809116
:100850006603803309F469C084E026C080916A038E
:1008600090916B03A0916C03B0916D03892B8A2B3F
:100870008B2B09F484CF0E94760280906A039090BB
:100880006B03A0906C03B0906D036C197D098E0909
:100890009F0986169706A806B90608F070CF8091C2
:1008A00069030E94860385E010926F031092910302
:1008B00010926E03DF91CF911F910F91FF90EF90F7
:1008C000DF90CF90BF90AF909F908F9008959D91B3
:1008D00091938F5F69CF85EEA5CF80916A03909148
:1008E0006B03A0916C03B0916D03892B8A2B8B2B2A
:1008F00009F49ECF0E94760200916A0310916B0367
:1009000020916C0330916D036C197D098E099F094C
:10091000061717072807390708F08ACFC0CF81E0EC
:10092000C3CF80E0C1CF82E0BFCF83E0BDCF0895C9
:10093000E091370380913603E81730F4F0E0EE5E83
:10094000FC4F808190E008958FEF9FEF0895909184
:100950003703809136032FEF3FEF981748F4E92FC4
:10096000F0E0EE5EFC4F208130E09F5F9093370314
:10097000C90108958091360390913703891B990B23
:100980000895CF92DF92EF92FF920F931F93CF9330
:10099000DF937C01CB018A0120916E03222389F031
:1009A000EB016B01C40ED51ECC15DD0569F0699114
:1009B000D701ED91FC910190F081E02DC7010995DF
:1009C000F3CF642F0E942A03C801DF91CF911F91BA
:1009D0000F91FF90EF90DF90CF900895CF93DF932A
:1009E0001F92CDB7DEB7698320916E032223F9F001
:1009F00020919103203258F021E030E0FC01338354
:100A0000228390E080E00F90DF91CF910895809154
:100A10006F03E82FF0E0E059FC4F998190838F5FDE
:100A200080936F038093910381E090E0ECCF61E0CD
:100A3000CE0101960E942A03F7CFFC01248131E008
:100A400030936E032093900310926F0310929103E2
:100A50008385682B8FE294E00E94EE0481E00C9481
:100A6000A70390E080E00895CF93DF93EC018B81A2
:100A70008823A1F0888191E090936E038093900386
:100A800010926F031092910381E00E94A70391E0FE
:100A9000811190E0892FDF91CF9108950E946F031B
:100AA00081E08B83CE010E943405982F8111E2CF23
:100AB000F1CF80E890E00895FC01248935892F3F2B
:100AC000320751F061E0FC0186899789019709F4AA
:100AD00060E0822F0C94F9010895EF92FF920F933A
:100AE0001F93CF93DF938C017B01C1E0D0E0D8014D
:100AF000ED91FC910190F081E02DC80109958C17D2
:100B00009D0734F0CE15DF0571F4F801D18FC08F49
:100B1000D80158968D919C91DF91CF911F910F91A3
:100B2000FF90EF900895CC0FDD1FE1CF80E190E0C2
:100B3000089585E090E008958EE191E00895CF92C8
:100B4000DF92EF92FF920F931F93CF93DF93EC010D
:100B50000E946D058EAD9FAD019691F07E0180E4FF
:100B6000E80EF11CF70180819181019649F06E0138
:100B700022E4C20ED11CF60180819181019659F4C4
:100B8000888D998DDF91CF911F910F91FF90EF90FC
:100B9000DF90CF900895E881F9810084F185E02D00
:100BA000CE0109958C01E881F9810284F385E02D5D
:100BB000CE010995488D598D30E020E082179307CA
:100BC000F9F2BA01022E02C0759567950A94E2F710
:100BD00060FF16C0200F311FF9011081612F647072
:100BE000F60180810E94F901612F6270F701808116
:100BF0000E94F901612F61708EAD0E94F901C0CF92
:100C00002F5F3F4FDBCFFC01768365830895FC01A6
:100C1000858196810895FC01808591850895FC0168
:100C2000868197810895FC0165830895FC01858183
:100C30000895FC0182859385089570E0660F771F03
:100C4000FC0185819681680F791FFB01808191816C
:100C50000895FC0185819681089590E080E00895D3
:100C6000089508950895089590E080E0089580E043
:100C7000089590E080E0089590E080E0089590E08D
:100C800080E0089590E080E00895FC0182819381E6
:100C9000089580E008954F925F926F927F928F92B5
:100CA0009F92AF92BF92CF92DF92EF92FF920F93FB
:100CB0001F93CF93DF93E82E0091EF041091F0047F
:100CC000FF24F39499249A9485EED82E95ECC92E9E
:100CD000D1E0D80114968D919C91892B09F4D0E034
:100CE000AD2EB12CF80180800E9476022B013C01D0
:100CF00080916803811164C0CD2FF0926803D09376
:100D0000670390926603109265038FEF8D0F8093B7
:100D10006403F092430380914303880C882A8092F5
:100D2000430380914203813009F08DC01092420349
:100D30000E9476022B013C01809143038093BB000B
:100D400080916A0390916B03A0916C03B0916D0345
:100D5000892B8A2B8B2BA1F00E94760220916A03AB
:100D600030916B0340916C0350916D0364197509C8
:100D700086099709261737074807590708F441C01D
:100D80008091BC0083FDD8CFC092BC000E94760247
:100D90002B013C0180916803813009F457C0809198
:100DA00065038D1710F4C0916503E4E4F3E0A2E15C
:100DB000B3E080E08C1751F191919D938F5FFACF52
:100DC00080916A0390916B03A0916C03B0916D03C5
:100DD000892B8A2B8B2B09F48BCF0E9476022091D2
:100DE0006A0330916B0340916C0350916D03641959
:100DF000750986099709261737074807590708F024
:100E000077CF809169030E948603C0E01092370378
:100E1000C0933603D0E0CA15DB05E9F590E080E029
:100E20008C179D07A8F5D80111968D919C91DC0136
:100E3000ED91FC910284F385E02D09958093ED04FA
:100E400081E090E0EDCFD092BC00A0CF80916A030A
:100E500090916B03A0916C03B0916D03892B8A2B49
:100E60008B2B09F497CF0E94760220916A03309170
:100E70006B0340916C0350916D03641975098609E9
:100E80009709261737074807590708F083CFB9CFC6
:100E9000CD2B09F41DCF8091ED0490E002C0959513
:100EA0008795EA94E2F78170DF91CF911F910F91BE
:100EB000FF90EF90DF90CF90BF90AF909F908F907A
:100EC0007F906F905F904F9008950F931F93CF93F3
:100ED0008C01C62F0E941D056C2F6460C8010E9402
:100EE0001D056C2F6B7FC8010E941D0583EC90E0EF
:100EF0000197F1F7CF911F910F9108950F931F93D1
:100F0000CF938C01C62F607F0E94650780E1C89F48
:100F1000B0011124C801CF911F910F910C94650766
:100F2000EF92FF920F931F93CF93DF938C017A017F
:100F300088E0689FB00111246064C8010E947E07A8
:100F4000E701A8E0EA0EF11C6991D801ED91FC914E
:100F50000190F081E02DC8010995CE15DF05A1F7BC
:100F6000DF91CF911F910F91FF90EF900895CF9354
:100F7000DF93CDB7DEB728970FB6F894DEBF0FBE6C
:100F8000CDBF28E0E6E0F1E0DE01119601900D9280
:100F90002A95E1F7FC012085241710F44FEF420F4A
:100FA00050E0440F551F21E030E02C0F3D1F420F51
:100FB000531FFA012081620F606828960FB6F894DB
:100FC000DEBF0FBECDBFDF91CF910C947E0761E0F5
:100FD0000E947E078BE39FE10197F1F708950F933D
:100FE0001F93CF938C01C62F607F61600E946507BD
:100FF00080E1C89FB00111246160C8010E946507AB
:1010000081E090E0CF911F910F910895CF92DF92F0
:10101000EF92FF92FC01248935892F3F320729F096
:10102000FC016689822F0E94F9010E9476026B0101
:101030007C010E9476026C197D098E099F0962303D
:10104000710581059105A8F3FF90EF90DF90CF9097
:1010500008950F931F93CF93DF93EC0161E088898C
:101060000E94450261E088890E94F90161E08A8955
:101070000E94450260E08A890E94F9018C899D895D
:101080008F3F980731F061E00E944502CE010E9437
:101090005C0580E090E0A8ECB2E48A8F9B8FAC8F77
:1010A000BD8F61E070E0CE010E949F05CE010E94DD
:1010B00006088EAD9FAD8F3F980701F18E01005C51
:1010C0001F4FF801208131812F3F3F4FB9F0CE5B98
:1010D000DF4F288139812F3F3F4F81F061E00E942F
:1010E000450261E0F80180810E94450261E088814B
:1010F000DF91CF911F910F910C944502DF91CF9119
:101100001F910F910895CF938091AC0490E0880FC8
:10111000991F2091B7043091B804820F931FDC010E
:101120008D919C91DC01ED91FC910480F581E02D85
:101130000995FC0101900020E9F7E81BC1E0CE0F02
:101140008091AC0490E0880F991F2091B7043091F2
:10115000B804820F931FFC0180819181DC01ED9125
:10116000FC910280F381E02D0995FC0101900020A3
:10117000E9F73197E81BF90BEC0FEC1708F18091B8
:10118000B504482F4150550BE417150614F0EEEF47
:10119000E80F8091B6048C1720F0C82FE81708F4E8
:1011A000CE2FC093B6044091AC048091AE04481B8E
:1011B0006C2F8091D3049091D404CF910C94B707F5
:1011C000EC2FE7CFFB0101900020E9F73197AF0149
:1011D000461B570BDC01ED91FC910280F381E02D61
:1011E00009948F929F92AF92BF920F931F93CF93C8
:1011F000DF93CDB7DEB7A1970FB6F894DEBF0FBE71
:10120000CDBF19A2423008F44AE08E010F5D1F4F96
:10121000842E912CB12CA12CA50194010E94FD17C4
:10122000E62FB901CA01EA3004F5E05DD801EE937A
:101230008D01232B242B252B79F790E080E010974C
:1012400029F0BD0182E993E00E94E208A1960FB661
:10125000F894DEBF0FBECDBFDF91CF911F910F91EC
:10126000BF90AF909F908F900895E95CDFCF0F9370
:101270001F93CF938C01C62F8AE790E00E94BE0196
:10128000C8010E94BE0188E790E00E94BE016C2F59
:1012900070E090E080E04AE00E94F10863E172E0D3
:1012A00082E993E0CF911F910F910C94E208CF93C4
:1012B000DF93D0E0C0E0009731F0BC0182E993E019
:1012C0000E94E208EC0163E172E082E993E00E948F
:1012D000E2088C0F9D1FDF91CF91089586E192E087
:1012E0000C9457090F931F93CF93DF938C01EB015D
:1012F00083E890E00E94BE01C8010E94BE0181E81F
:1013000090E00E94BE01CE01DF91CF911F910F911D
:101310000C945709CF92DF92EF92FF92CF93DF9315
:101320006C01990FEE08FF08F7FE21C06DE282E91B
:1013300093E00E947101EC0166277727CB016C19BD
:101340007D098E099F094AE00E94F108C80FD91F44
:1013500063E172E082E993E00E94E2088C0F9D1F36
:10136000DF91CF91FF90EF90DF90CF9008954AE00A
:10137000C701B6010E94F108EC01EACF61157105C1
:1013800011F00C94E20890E080E00895CF93C0E063
:101390009091B4042091D3043091D404C91778F407
:1013A0004C2F60E0C9010E94B70768EB72E08091A2
:1013B000D3049091D4040E94BE09CF5FE9CF40913D
:1013C000AC048091AE04A42FA81BBB0BB7FD42C098
:1013D000481B9A171B0609F014F44FEF490F60E001
:1013E000C9010E94B7078091D3049091D404DC0115
:1013F000ED91FC910190F081E02D2091B00460917D
:10140000CA04211102C06091C90409958091AC04FD
:1014100090E0880F991F2091B7043091B804820F93
:10142000931FDC01ED91FC9184818530A9F40E9429
:1014300083088091B004882379F08091D30490913F
:10144000D404FC016681262F216026836960CF9138
:101450000C947E0740E0C3CF8091D3049091D404D4
:10146000DC0116966C9116976E7F16966C936860E9
:10147000EECF0F931F93CF938C01C62F81E790E09F
:101480000E94BE01C8010E94BE018FE690E00E944A
:10149000BE016C2F82E993E00E94710163E172E06A
:1014A00082E993E0CF911F910F910C94E208CF93C2
:1014B000DF93EC0188E690E00E94BE01CE010E941D
:1014C000BE0163E172E082E993E0DF91CF910C9479
:1014D000E208EF92FF920F931F93CF93DF938091D7
:1014E000B004882321F08091B10481114EC0809115
:1014F000AC0490E0880F991F2091B7043091B80494
:10150000820F931FDC01ED90FC90F7018481853000
:1015100091F58091B6048F5F8093B6040E94830892
:10152000D701ED91FC910280F381E02DC70109956F
:101530008C01C091B604D0E0D701ED91FC910480FC
:10154000F581E02DC7010995FC0101900020E9F724
:101550003197E81BF90B2297CE1BDF0BC00FD11F71
:10156000688182EF90E0DF91CF911F910F91FF9002
:10157000EF900C94390A8CEE90E0DF91CF911F919F
:101580000F91FF90EF900C94570ADF91CF911F912C
:101590000F91FF90EF900895EF92FF920F931F939A
:1015A000CF93DF938091B004882321F08091B10420
:1015B00081114EC08091AC0490E0880F991F20915A
:1015C000B7043091B804820F931FDC01ED90FC90BA
:1015D000F7018481853091F58091B6048150809324
:1015E000B6040E948308D701ED91FC910280F3813B
:1015F000E02DC70109958C01C091B604D0E0D70158
:10160000ED91FC910480F581E02DC7010995FC0165
:1016100001900020E9F73197E81BF90B2297CE1BC8
:10162000DF0BC00FD11F688187EE90E0DF91CF9173
:101630001F910F91FF90EF900C94390A82EE90E089
:10164000DF91CF911F910F91FF90EF900C94570A6B
:10165000DF91CF911F910F91FF90EF9008958F929E
:101660009F92AF92BF92CF92DF92EF92FF920F9331
:101670001F93CF93DF938091CB04882309F477C124
:101680008091D3049091D404DC0116966C91169746
:10169000262F246016962C936C600E947E07809102
:1016A000D3049091D4042091CC04222309F4AFC038
:1016B00028E0FC01238760E00E941D058091D3048F
:1016C0009091D4040E94E7070091AE04E091B20427
:1016D0008090AE04E01708F4D0C0E02EF12CEE0CA0
:1016E000FF1CA091B704B091B804AE0DBF1DCD9101
:1016F000DC91912CB12CA12CA091B404A150BB0B76
:10170000202F30E050E040E0281939094A095B09F0
:101710000E94F5172E2F30E050E040E028193909DB
:101720004A095B090E94CB17422F61E08091D304E4
:101730009091D4040E94B707E091B704F091B804E7
:10174000EE0DFF1D0190F081E02D8481883079F04D
:10175000C090D304D090D404E881F9810480F5814D
:10176000E02DCE010995BC01C6010E94BE098C8105
:10177000873009F450C08A3019F0853009F06BC009
:101780001091B50480913A0381110BC0812F90E034
:101790000E947D18909339038093380381E08093F1
:1017A0003A03C0903803D0903903E881F98104806E
:1017B000F581E02DCE010995FC0101900020E9F7AB
:1017C0003197E81BF90B12501E1BE881F98102804A
:1017D000F381E02DCE010995C12FD0E0AE01BC010F
:1017E000C6010E94BD19CC0DDD1D188262E272E0B7
:1017F0008091D3049091D4040E94BE096091380373
:10180000709139038091D3049091D40422C0DC01FB
:101810001B961C9250CF62E272E08091D3049091AB
:10182000D4040E94BE09C090D304D090D404E881AF
:10183000F9810190F081E02DCE010995E881F981CF
:101840008823B9F00684F785E02DCE010995BC0107
:10185000C6010E94BE098091B7049091B804E80EB9
:10186000F91ED701ED91FC918481883031F00F5F32
:101870002DCF0088F189E02DE8CF8091AE04813032
:10188000C9F44091B40441506091B5046150809115
:10189000D3049091D4040E94B7078091D30490910F
:1018A000D404DC01ED91FC910190F081E02D61E028
:1018B000099548C00E94BA002091AC0430E0215044
:1018C0003048220F331F4091B7045091B804240FC1
:1018D000351FD901ED91FC9194819150923080F1A6
:1018E000811118C04091B40441506091B504615019
:1018F0008091D3049091D4040E94B7078091D304BF
:101900009091D404DC01ED91FC910190F081E02DE7
:1019100061E009956091B504615040E08091D30485
:101920009091D4040E94B7078091D3049091D4047D
:10193000DC01ED91FC910190F081E02D60E0B8CFE9
:101940008111E8CF0E94C6092FB7F89480913B041B
:1019500090913C04A0913D04B0913E042FBF809330
:10196000CD049093CE04A093CF04B093D004DF9124
:10197000CF911F910F91FF90EF90DF90CF90BF908C
:10198000AF909F908F9008958093CC040C942F0B70
:10199000CF93DF938091AC0490E0880F991F209142
:1019A000B7043091B804820F931FFC01C081D1812C
:1019B0008C818530D9F4E881F981068CF78DE02D92
:1019C00065E172E0CE010995E881F9810280F38139
:1019D000E02DCE010995BC0183E091E00E947209DF
:1019E0001092B604DF91CF910C942F0BDF91CF9121
:1019F00008950F931F93CF93DF938091AC0490E0F1
:101A0000880F991F2091B7043091B804820F931F5B
:101A1000FC01C081D1816C818DEF90E00E9437097B
:101A20008C81853091F050F48330E1F0843009F4FA
:101A300048C0DF91CF911F910F910895873009F42D
:101A400053C0B8F389508230A0F78091B00481115F
:101A5000F0CF81E08093B004DF91CF911F910F917F
:101A60000C94C609E881F9810484F585E02DCE0146
:101A70000995892BF1F2E881F9810484F585E02D3F
:101A8000CE0109959093B8048093B7048091AC047B
:101A90008093AD048091AE048093AF048091B20432
:101AA0008093B30481E08093AC048093AE04809172
:101AB000B4048093B204DF91CF911F910F910C94E5
:101AC0002F0BE881F9810680F781E02DCE01099581
:101AD000892B89F3E881F9810680F781E02DCE0119
:101AE0000995FC010995E7CFE881F981048D158DF1
:101AF0000190F081E02DCE01099561E06827CE01CB
:101B0000F8010995E881F9810084F185E02DCE0185
:101B10000995892B81F2E881F9810084F185E02D16
:101B2000CE0109958C01E881F9810190F081E02DC9
:101B3000CE01099590E0F8010995BDCF0F931F9351
:101B4000CF93DF9388EF90E00E94570AA091B704EB
:101B5000B091B8048091B004882371F1E091AC0495
:101B6000F0E0EE0FFF1FEA0FFB1FC081D1818C81D7
:101B7000853011F51092B0040E942F0BE881F98195
:101B80000284F385E02DCE010995892BC9F1E88106
:101B9000F9810284F385E02DCE0109958C01E8815D
:101BA000F9810280F381E02DCE010995F801DF91E2
:101BB000CF911F910F9109948D919C91DC01149606
:101BC0002C9114972230E1F4ED91FC910484F58579
:101BD000E02D09959093B8048093B7048091AD04EB
:101BE0008093AC048091AF048093AE048091B304E1
:101BF0008093B204DF91CF911F910F910C942F0B22
:101C0000DF91CF911F910F9108950E94BA00811129
:101C10001DC08091B004811119C06091AC046F5F48
:101C20006093AC048DED90E00E9437098091B2047E
:101C30009091AC04891740F49091AE049F5F90930B
:101C4000AE048F5F8093B2040C942F0B08956091C3
:101C5000AC04862F90E081509048880F991F209106
:101C6000B7043091B804820F931FDC01ED91FC9111
:101C7000848181508230D8F08091B004811117C0E6
:101C800061506093AC048AED90E00E943709809126
:101C9000AE049091AC04981740F481508093AE0448
:101CA0008091B20481508093B2040C942F0B08955C
:101CB0005F926F927F928F929F92AF92BF92CF92DC
:101CC000DF92EF92FF920F931F93CF93DF93CDB7E5
:101CD000DEB764970FB6F894DEBF0FBECDBF20917C
:101CE000AC0430E0220F331F4091B7045091B80488
:101CF000240F351FD9010D911C91F8019481953065
:101D000009F0E9C09091B004992309F4E4C0582E79
:101D10000190F081E02D0280F381E02DC80109954A
:101D2000FC0101900020E9F731977F01E81AF90AD8
:101D3000D801ED91FC910480F581E02DC801099551
:101D4000FC0101900020E9F77E2E781A7394872D0C
:101D50008E0D871508F49BC09091B504E92FE150D2
:101D6000FF0B8E171F0614F08EEF890FC090B6047C
:101D7000FF24D801ED91FC91A280B380C81608F031
:101D800088C08091B5048719990B0E947D184C0179
:101D9000C718C801F5010995D12C5E01FBE0AF0E13
:101DA000B11CA601BC01C5010E94BD19F501EC0DD5
:101DB000FD1D10826091B6046F5FD62ED718D80132
:101DC000ED91FC910280F381E02DC8010995BC01E1
:101DD0006D0D711DA701FE0131966F01CF010E94AB
:101DE000BD19F601EE0DFF1D1082F50101900020D6
:101DF000E9F731977F01EA18FB08F601019000200E
:101E0000E9F731973F016C187D08A701B501C401BE
:101E10000E94A2195401AE0CBF1CD5015C92C701EF
:101E20000196A301B601880D991D0E94A2196A0CA2
:101E30007B1CF3011182D801ED91FC91068CF78D8A
:101E4000E02DB401C80109951092B1048091B60447
:101E50008F5F8093B6040E942F0B652D83E191E084
:101E600064960FB6F894DEBF0FBECDBFDF91CF9161
:101E70001F910F91FF90EF90DF90CF90BF90AF90A8
:101E80009F908F907F906F905F900C94390A872D70
:101E90006DCFC70102960E947D187C01C801F50133
:101EA0000995FC0101900020E9F731976F01C81AEC
:101EB000D90AA601BC01C7010E94A219F701EC0DC5
:101EC000FD1D50821182D801ED91FC91068CF78D99
:101ED000E02DB701B7CF64960FB6F894DEBF0FBE02
:101EE000CDBFDF91CF911F910F91FF90EF90DF90C9
:101EF000CF90BF90AF909F908F907F906F905F90AA
:101F000008951F93CF93DF938091AC0490E0880FE6
:101F1000991F2091B7043091B804820F931FFC01E0
:101F2000C081D1818C81853009F04FC01091B604F9
:101F3000E881F9810480F581E02DCE010995FC014D
:101F400001900020E9F73197E81BF90B13501E1B95
:101F5000E881F9810280F381E02DCE010995FC0131
:101F600001900020E9F73197E81BF90B212F30E0B1
:101F7000AF015527E11B241735070CF4E1E06E2F64
:101F800070E0461B570B421B530B4F5F5F4F620FB6
:101F9000731F680F791F820F931F0E94AB19E8818E
:101FA000F9810280F381E02DCE010995BC0189E021
:101FB00091E00E9472098091B60481508093B6042A
:101FC000DF91CF911F910C942F0BDF91CF911F9137
:101FD00008950C949E0D85ED8093BC0080916A035A
:101FE00090916B03A0916C03B0916D030796A11DB6
:101FF000B11D23E0B695A795979587952A95D1F7BA
:102000002091BC0024FD03C0109268030895409104
:102010006A0350916B0360916C0370916D03452BC3
:10202000462B472B69F30097A105B10541F025E345
:102030002A95F1F700000197A109B109E1CF80913C
:1020400069030C9486031F920F920FB60F9211240E
:102050002F933F934F935F936F937F938F939F93B0
:10206000AF93BF93EF93FF9382E993E00E944F01F8
:10207000FF91EF91BF91AF919F918F917F916F9160
:102080005F914F913F912F910F900FBE0F901F9036
:1020900018951F920F920FB60F9211242F938F93C2
:1020A0009F93EF93FF93E091A203F091A3038081AC
:1020B000E091A803F091A90382FD1BC0908180915B
:1020C000AB038F5F8F732091AC03821741F0E091D7
:1020D000AB03F0E0EE56FC4F958F8093AB03FF917E
:1020E000EF919F918F912F910F900FBE0F901F90A6
:1020F00018958081F4CF1F920F920FB60F92112482
:102100002F933F938F939F93AF93BF9380913B0403
:1021100090913C04A0913D04B0913E04309107039E
:1021200023E0230F2D3758F50196A11DB11D2093F3
:10213000070380933B0490933C04A0933D04B09329
:102140003E048091080390910903A0910A03B09185
:102150000B030196A11DB11D809308039093090301
:10216000A0930A03B0930B03BF91AF919F918F91FE
:102170003F912F910F900FBE0F901F90189526E85A
:10218000230F0296A11DB11DD2CF1F920F920FB641
:102190000F9211242F933F934F935F936F937F93ED
:1021A0008F939F93AF93BF93CF93DF93EF93FF935F
:1021B00080910603C0916304D0E087FF24C0109291
:1021C000850010928400809106038F5F8093060340
:1021D00080910603082E000C990B8C179D0724F4A0
:1021E000809106038C30C4F1809184009091850029
:1021F000049680349C4908F47AC0809184009091C0
:102200008500049676C080910603082E000C990B79
:102210008C179D07C4F6E09106038E2FEE0F990BE5
:10222000FC01EE0FFF1FE80FF91FE15CFB4F8081FF
:1022300086FFC9CFE09106038E2FEE0F990BFC01AC
:10224000EE0FFF1FE80FF91FE15CFB4F808160E09C
:102250008F730E94F901B7CF2091840030918500DF
:10226000E09106038E2FEE0F990BFC01EE0FFF1F7E
:10227000E80FF91FE15CFB4F81819281820F931F70
:102280009093890080938800E09106038E2FEE0FD3
:10229000990BFC01EE0FFF1FE80FF91FE15CFB4FEC
:1022A000808186FF11C0E09106038E2FEE0F990BFF
:1022B000FC01EE0FFF1FE80FF91FE15CFB4F80816F
:1022C00061E08F730E94F901FF91EF91DF91CF914F
:1022D000BF91AF919F918F917F916F915F914F913E
:1022E0003F912F910F900FBE0F901F90189580E493
:1022F0009CE990938900809388008FEF8093060378
:10230000E3CF1F920F920FB60F9211242F933F939A
:102310004F935F936F937F938F939F93AF93BF93ED
:10232000EF93FF938091B900887F803609F44AC00B
:10233000F0F5883209F4A7C018F5803109F49BC084
:10234000B8F4882309F4F9C0883009F494C0FF91E7
:10235000EF91BF91AF919F918F917F916F915F911D
:102360004F913F912F910F900FBE0F901F90189596
:10237000883109F488C0803251F78093660314C015
:10238000803409F49DC040F48033B9F38833F9F602
:102390008093660385ECB0C0803509F485C088352C
:1023A00009F496C0883499F60E94EB0FD0CF883993
:1023B00009F48CC038F5883729F050F4883611F0CC
:1023C000803729F683E0809368031092050357C095
:1023D000883809F47BC0803919F0803809F0B7CF0C
:1023E00080910503803208F071C0E091050381E01F
:1023F0008E0F809305038091BB00F0E0EB51FD4F01
:1024000080833DC0803B39F0E0F4803A09F479C024
:10241000883A09F09CCF84E0809368031092E4022C
:102420001092E302E0913403F09135030995809115
:10243000E30281110FC081E08093E3021092C30296
:1024400009C0803C09F4A6CF883C09F4A3CF883B9F
:1024500009F07DCFE091E40281E08E0F8093E402E9
:10246000F0E0ED53FD4F80818093BB009091E4023A
:102470008091E30229C0809143038093BB0085ECE7
:102480008093BC0064CF909165038091640398179A
:1024900058F5E091650381E08E0F80936503F0E0CD
:1024A000EC5BFC4F8081E9CFE091650381E08E0F0A
:1024B000809365038091BB00F0E0EC5BFC4F808370
:1024C00090916503809164039817C8F285E8D8CF8E
:1024D000E091650381E08E0F809365038091BB00DE
:1024E000F0E0EC5BFC4F80838091670381115CCF4F
:1024F00081E08093420384EA8093BC0010926803D9
:1025000026CF85EC8093BC00109268038091050370
:10251000803230F4E0910503F0E0EB51FD4F108282
:102520006091050370E0E0913203F091330385EE92
:1025300092E00995109205030ACF1092660334CFFA
:10254000FC01168217821086118612861386148665
:10255000158688EC90E097878687718B608B538B0C
:10256000428B8FEF9FEF958B848B21E030E0378B90
:10257000268B318F208F128E138E148E158E178E10
:10258000168E28EE33E031A320A333A322A314A692
:1025900015A616A617A610A611A612A613A615AE66
:1025A00014AE10AA11AA12AA13AA14AA15AA16AA3E
:1025B00017AA10AE11AE12AE13AE1282138214829D
:1025C000158214A215A216A217A223E331E03183CB
:1025D000208397AF86AFDF01A05CBF4F8D939C93A4
:1025E000EE5BFF4F9183808308956F927F928F926D
:1025F0009F92AF92BF92CF92DF92EF92FF920F9392
:102600001F93CF93DF93109295031092940388EE5B
:1026100093E0A0E0B0E08093960390939703A0939B
:102620009803B093990323E431E03093930320930C
:10263000920325EC30E030939F0320939E0324EC1B
:1026400030E03093A1032093A00320EC30E03093DE
:10265000A3032093A20321EC30E03093A503209341
:10266000A40322EC30E03093A7032093A60326ECCA
:1026700030E03093A9032093A8031092AB0310928B
:10268000AC031092AD031092AE031092320410927C
:1026900031048093330490933404A0933504B093B1
:1026A000360485E591E09093300480932F044AE04E
:1026B00050E06CE070E08BE395E00E94A0124BE0EC
:1026C00050E06DE070E087EF94E00E94A0128091EE
:1026D00063048C3008F00EC291E0980F909363046D
:1026E0008093F40490E0FC01EE0FFF1FE80FF91F48
:1026F000E15CFB4F88EB9BE09283818380916304D4
:102700008C3008F0FBC191E0980F909363048093A4
:10271000F10490E0FC01EE0FFF1FE80FF91FE15CF0
:10272000FB4F88EB9BE0928381831092ED04109223
:10273000EE0487E090E00E947D18FC0185E1882E80
:1027400082E0982E93828282C1E0C4839BEEA92E00
:1027500091E0B92EB182A08216821582F093E40432
:10276000E093E30487E090E00E947D18FC0184E29E
:1027700092E09383828324E0622E64823FEBC32E37
:1027800031E0D32ED182C0828EE699E09683858394
:10279000F093E604E093E50487E090E00E947D1862
:1027A000FC018DE292E09383828383E0848385ED54
:1027B00094E0968385838BEE91E091838083F09300
:1027C000E804E093E70485E090E00E947D18FC01B6
:1027D00003E911E01183008386E392E0938382830F
:1027E00046E0742E7482F093EA04E093E90485E0F5
:1027F00090E00E947D18FC0113821282D8E0D483FD
:1028000053E9E52E51E0F52EF182E0829093EC043D
:102810008093EB0487E090E00E947D18FC01938296
:10282000828262E0962E9482B182A08283EE94E04E
:1028300096838583F093D604E093D50487E090E0F7
:102840000E947D18FC0182E492E09383828364827B
:10285000D182C08289EE9FE096838583F093D8046D
:10286000E093D70485E090E00E947D18FC0111837D
:1028700000838AE492E0938382837482F093DA0483
:10288000E093D90485E090E00E947D18FC0111835B
:10289000008388E592E0938382837482F093DC0462
:1028A000E093DB0485E090E00E947D18FC01118339
:1028B000008386E692E0938382837482F093DE0441
:1028C000E093DD048CE090E00E947D18FC0185E738
:1028D00092E09383828387E0848387E691E091830B
:1028E000808315828FE792E09783868382E892E067
:1028F0009187808784EC9CE093878287F093E00443
:10290000E093DF0485E090E00E947D18FC011382D3
:102910001282D483F182E0829093E2048093E104F6
:10292000C093AC04C093AD04C093AE04C093AF0495
:102930001092B0041092B1049092B2041092B304B9
:102940009092B40480E18093B5041092B604109282
:10295000B8041092B704EEE0F1E0A9EBB4E08D2FDB
:1029600001900D928A95E1F7E6E1F1E0A1ECB4E087
:1029700001900D92DA95E1F78EE78093C9048FE715
:102980008093CA04C093CB04C093CC041092CD04AE
:102990001092CE041092CF041092D00480E197E2FE
:1029A0009093D2048093D1041092D4041092D30453
:1029B00088E694E090938F0480938E048CE694E0F4
:1029C00090938D0480938C0484E694E0909391041A
:1029D000809390041092AA041092A2041092A3046F
:1029E0001092A4041092A50480E090E0AFE7B3E455
:1029F0008093A6049093A704A093A804B093A9047D
:102A000084E690E0A0E0B0E080939E0490939F0461
:102A1000A093A004B093A10410928904109288049A
:102A200081E090E090938B0480938A04C093AB0480
:102A300080E090E0A0E0B0E4809370049093710493
:102A4000A0937204B09373041092740410927504EE
:102A50001092760410927704109278041092790400
:102A600010927A0410927B0480937C0490937D04EE
:102A7000A0937E04B0937F0410928004109281048E
:102A800010928204109283041092840410928504A0
:102A900010928604109287042FB7F89480913B041B
:102AA00090913C04A0913D04B0913E042FBF409111
:102AB0009E0450919F046091A0047091A104841B16
:102AC000950BA60BB70B8093920490939304A0935D
:102AD0009404B0939504DF91CF911F910F91FF90D3
:102AE000EF90DF90CF90BF90AF909F908F907F90AE
:102AF0006F9008958FEF8093F40400CE8FEF809352
:102B0000F10413CE789484B5826084BD84B581606D
:102B100084BD85B5826085BD85B5816085BD8091A8
:102B20006E00816080936E00109281008091810020
:102B30008260809381008091810081608093810018
:102B4000809180008160809380008091B1008460DA
:102B50008093B1008091B00081608093B00080913B
:102B60007A00846080937A0080917A0082608093FA
:102B70007A0080917A00816080937A0080917A0057
:102B8000806880937A001092C1008BE395E00E94E8
:102B9000290887EF94E00E94290865E070E084EF3F
:102BA00094E00E94CD0266E070E081EF94E00E9424
:102BB000CD0260E081E00E94450260E080E00E947A
:102BC00045028CE090E00E947D18EC018091B404F5
:102BD0009091B5041B821A8227E231E03983288361
:102BE00020E22C8399878A871B86D093D404C093D4
:102BF000D3040E946F031D828A85823010F098E012
:102C00009D83888762E370E080E090E00E949B02F1
:102C10006B85CE010E941D0568EE73E080E090E0B8
:102C20000E949B0260E3CE010E9465070BE416E45C
:102C3000C8010197F1F760E3CE010E946507C80162
:102C40000197F1F760E3CE010E94650783E592E00A
:102C50000197F1F760E2CE010E9465076D81606225
:102C6000CE010E947E0784E08E836CE0CE010E943C
:102C70007E07CE010E94E70782E08F8366E0CE01E7
:102C80000E947E0762E0CE010E947E078BE39FE1F7
:102C90000197F1F78091D3049091D40428E0DC01EE
:102CA0001B962C9360E00E941D058091D3049091A7
:102CB000D4040E94E70741EC54E060E08091D30423
:102CC0009091D4040E94900749EB54E061E0809118
:102CD000D3049091D4040E94900783EE94E09093E3
:102CE000B8048093B7042FB7F89480913B04909177
:102CF0003C04A0913D04B0913E042FBF8093CD04CD
:102D00009093CE04A093CF04B093D0040E942F0BD5
:102D100080E480937C0080917A00806480937A00C4
:102D200080917A0086FDFCCF8091780060917900D7
:102D3000762F682F072E000C880B990B0E943018F5
:102D400060936C0470936D0480936E0490936F0491
:102D500080E090E0A0EAB2E480936404909365047C
:102D6000A0936604B0936704E091A203F091A303DB
:102D700082E08083E0919E03F0919F031082E091B6
:102D8000A003F091A10380E180831092AA03E09157
:102D9000A603F091A70386E08083E091A403F0915D
:102DA000A503808180618083E091A403F091A50355
:102DB000808188608083E091A403F091A5038081E5
:102DC00080688083E091A403F091A50380818F7DCA
:102DD000808386E892E00E9457098091EF049091E9
:102DE000F0040E94191986E090E00E947D18EC0121
:102DF00081E288838FE294E09A8389831B8280E258
:102E000090E09D838C83D093F004C093EF040E94E4
:102E10006F0381E08B83CE010E943405C2E0D0E0D5
:102E200001E010E0FF24F394811105C089E992E0EC
:102E30000E945709FFCF8091EE0498010C2E01C02B
:102E4000220F0A94EAF7822B8093EE04E091EF04BC
:102E5000F091F00484819581892BD9F08181928150
:102E60002081F0926E032093900310926F031092D2
:102E70009103DC01ED91FC910280F381E02D41E0B2
:102E800050E06EEE74E00995019719F481E00E941C
:102E9000A7032196C830D10571F682E00E944B0647
:102EA00090E090930F0380930E03C0E0D0E082E0A7
:102EB0000E944B0690E090931103809310032091A1
:102EC0000E0330910F038217930729F183E00E94CC
:102ED0004B06409110035091110320910C03309147
:102EE0000D038417150609F43FC02F5F3F4F309341
:102EF0000D0320930C0320FD0EC06FEA72E082E9FF
:102F000093E00E94BE0980910C0390910D030E94F2
:102F10008A090E94050E80911003909111039093ED
:102F20000F0380930E0384E00E944B06811111C0B1
:102F30008AEB92E00E9457090E94F90C84E00E94FB
:102F40004B068823D9F36AE070E080E090E00E94AD
:102F50009B02209709F4ABCF0E943B01882309F420
:102F6000A6CF0E940000A3CF2150310930930D035A
:102F700020930C0320FDCFCF6FEA72E082E993E04B
:102F80000E94BE0980910C0390910D030E948A0952
:102F90000E94270EC0CF052E97FB1EF400940E94BE
:102FA000E21757FD07D00E94FD1707FC03D04EF42F
:102FB0000C94E21750954095309521953F4F4F4F17
:102FC0005F4F089590958095709561957F4F8F4FD5
:102FD0009F4F08950E941F18A59F900DB49F900DBC
:102FE000A49F800D911D11240895B7FF0C94EA173A
:102FF0000E94EA17821B930B0895A1E21A2EAA1BC6
:10300000BB1BFD010DC0AA1FBB1FEE1FFF1FA21798
:10301000B307E407F50720F0A21BB30BE40BF50B95
:10302000661F771F881F991F1A9469F7609570951E
:10303000809590959B01AC01BD01CF010895A29FA1
:10304000B001B39FC001A39F700D811D1124911D7C
:10305000B29F700D811D1124911D0895E89409C03F
:1030600097FB3EF490958095709561957F4F8F4FBB
:103070009F4F9923A9F0F92F96E9BB279395F695D1
:10308000879577956795B795F111F8CFFAF4BB0F4F
:1030900011F460FF1BC06F5F7F4F8F4F9F4F16C0B3
:1030A000882311F096E911C0772321F09EE8872F3D
:1030B000762F05C0662371F096E8862F70E060E0F9
:1030C0002AF09A95660F771F881FDAF7880F969572
:1030D000879597F90895991B79E004C0991F961771
:1030E00008F0961B881F7A95C9F780950895EE0F12
:1030F000FF1F0590F491E02D09940F931F93CF9338
:10310000DF938230910510F482E090E0E091810538
:10311000F091820530E020E0B0E0A0E0309799F433
:103120002115310509F44AC0281B390B243031051B
:10313000D8F58A819B816115710589F1FB01938323
:103140008283FE0111C040815181028113814817A1
:103150005907E0F04817590799F4109761F0129653
:103160000C93129713961C933296CF01DF91CF9157
:103170001F910F9108950093810510938205F4CF5C
:103180002115310551F04217530738F0A901DB0131
:103190009A01BD01DF01F801C1CFEF01F9CF909392
:1031A000820580938105CDCFFE01E20FF31F81934D
:1031B00091932250310939832883D7CF20917F05FD
:1031C00030918005232B41F42091020130910301BD
:1031D0003093800520937F052091000130910101FB
:1031E0002115310541F42DB73EB7409104015091AE
:1031F0000501241B350BE0917F05F0918005E21756
:10320000F307A0F42E1B3F0B2817390778F0AC0109
:103210004E5F5F4F2417350748F04E0F5F1F5093E6
:10322000800540937F05819391939FCFF0E0E0E08C
:103230009CCFCF93DF930097E9F0FC013297138284
:103240001282A0918105B0918205ED0130E020E06D
:103250001097A1F420813181820F931F20917F0567
:10326000309180052817390709F061C0F093800577
:10327000E0937F05DF91CF910895EA01CE17DF0734
:10328000E8F54A815B819E0141155105B1F7E901DD
:10329000FB83EA8349915991C40FD51FEC17FD07B1
:1032A00061F4808191810296840F951FE9019983D1
:1032B0008883828193819B838A83F0E0E0E0129689
:1032C0008D919C9113970097B9F52D913C91119791
:1032D000CD010296820F931F20917F0530918005CA
:1032E0002817390739F6309751F510928205109258
:1032F0008105B0938005A0937F05BCCFD383C283A3
:1033000040815181840F951FC817D90761F44E5F22
:103310005F4F88819981480F591F518340838A816B
:103320009B81938382832115310509F0B0CFF093FF
:103330008205E09381059ECFFD01DC01C0CF1382A1
:103340001282D7CFFB01DC0102C001900D924150E7
:103350005040D8F708956817790768F4FB01DC013D
:10336000E40FF51FA40FB51F02C002900E9241504A
:103370005040D8F708950C94A219FB01DC0141508C
:10338000504048F001900D920020C9F701C01D92F5
:0C33900041505040E0F70895F894FFCF42
:10339C000000830580000000400014005400040469
:1033AC00040404150E04040E1504040404040001A2
:1033BC0002030700000000EF07D1003105290300CC
:1033CC0000000096059F0506085C059C0599050004
:1033DC000000007101D100FE00D9012F010D012167
:1033EC000100000000EE04C10431059704BA04A7E3
:1033FC000498040000000016063C06450642061917
:10340C000642063F060F060B063906370634062918
:10341C00032903130632063106300630062D06004A
:10342C0000000049063C0645064206420642063F9D
:10343C00063C063C063906370634062903290333B5
:10344C000632063106300630062D06000000004913
:10345C00063C0645060706420642063F063C063C6D
:10346C0006390637063406290329033306320603C8
:10347C0006300630062D060000000049063C0645C5
:10348C000642064206420629063C063C0639063729
:10349C00063406290329033306320631063006307A
:1034AC00061D060D0A004D616B696E67205465613F
:1034BC0021003A004D616B652054656100536574C1
:1034CC0074696E67730041626F75742055732E2E8C
:1034DC002E004261636B2E2E2E005374656570694D
:1034EC006E672054696D65005374656570696E670D
:1034FC002054656D7000436C65616E696E67204386
:10350C0079636C65004261636B6C69676874004F2A
:10351C004E004F464600506F7572666563742054BA
:10352C00656120444542554700436F756C646E27B6
:10353C00742066696E642050434638353734005029
:10354C006F736974696F6E3A2000434C49434B2189
:02355C0000006D
:00000001FF
